{
  "contractName": "Token",
  "abi": [
    {
      "inputs": [
        {
          "internalType": "string",
          "name": "name",
          "type": "string"
        },
        {
          "internalType": "string",
          "name": "symbol",
          "type": "string"
        }
      ],
      "stateMutability": "nonpayable",
      "type": "constructor"
    },
    {
      "anonymous": false,
      "inputs": [
        {
          "indexed": true,
          "internalType": "address",
          "name": "owner",
          "type": "address"
        },
        {
          "indexed": true,
          "internalType": "address",
          "name": "approved",
          "type": "address"
        },
        {
          "indexed": true,
          "internalType": "uint256",
          "name": "tokenId",
          "type": "uint256"
        }
      ],
      "name": "Approval",
      "type": "event"
    },
    {
      "anonymous": false,
      "inputs": [
        {
          "indexed": true,
          "internalType": "address",
          "name": "owner",
          "type": "address"
        },
        {
          "indexed": true,
          "internalType": "address",
          "name": "operator",
          "type": "address"
        },
        {
          "indexed": false,
          "internalType": "bool",
          "name": "approved",
          "type": "bool"
        }
      ],
      "name": "ApprovalForAll",
      "type": "event"
    },
    {
      "anonymous": false,
      "inputs": [
        {
          "indexed": true,
          "internalType": "address",
          "name": "previousOwner",
          "type": "address"
        },
        {
          "indexed": true,
          "internalType": "address",
          "name": "newOwner",
          "type": "address"
        }
      ],
      "name": "OwnershipTransferred",
      "type": "event"
    },
    {
      "anonymous": false,
      "inputs": [
        {
          "indexed": true,
          "internalType": "address",
          "name": "from",
          "type": "address"
        },
        {
          "indexed": true,
          "internalType": "address",
          "name": "to",
          "type": "address"
        },
        {
          "indexed": true,
          "internalType": "uint256",
          "name": "tokenId",
          "type": "uint256"
        }
      ],
      "name": "Transfer",
      "type": "event"
    },
    {
      "inputs": [
        {
          "internalType": "address",
          "name": "to",
          "type": "address"
        },
        {
          "internalType": "uint256",
          "name": "tokenId",
          "type": "uint256"
        }
      ],
      "name": "approve",
      "outputs": [],
      "stateMutability": "nonpayable",
      "type": "function"
    },
    {
      "inputs": [
        {
          "internalType": "address",
          "name": "owner",
          "type": "address"
        }
      ],
      "name": "balanceOf",
      "outputs": [
        {
          "internalType": "uint256",
          "name": "",
          "type": "uint256"
        }
      ],
      "stateMutability": "view",
      "type": "function"
    },
    {
      "inputs": [
        {
          "internalType": "uint256",
          "name": "tokenId",
          "type": "uint256"
        }
      ],
      "name": "getApproved",
      "outputs": [
        {
          "internalType": "address",
          "name": "",
          "type": "address"
        }
      ],
      "stateMutability": "view",
      "type": "function"
    },
    {
      "inputs": [
        {
          "internalType": "address",
          "name": "owner",
          "type": "address"
        },
        {
          "internalType": "address",
          "name": "operator",
          "type": "address"
        }
      ],
      "name": "isApprovedForAll",
      "outputs": [
        {
          "internalType": "bool",
          "name": "",
          "type": "bool"
        }
      ],
      "stateMutability": "view",
      "type": "function"
    },
    {
      "inputs": [],
      "name": "name",
      "outputs": [
        {
          "internalType": "string",
          "name": "",
          "type": "string"
        }
      ],
      "stateMutability": "view",
      "type": "function"
    },
    {
      "inputs": [],
      "name": "owner",
      "outputs": [
        {
          "internalType": "address",
          "name": "",
          "type": "address"
        }
      ],
      "stateMutability": "view",
      "type": "function"
    },
    {
      "inputs": [
        {
          "internalType": "uint256",
          "name": "tokenId",
          "type": "uint256"
        }
      ],
      "name": "ownerOf",
      "outputs": [
        {
          "internalType": "address",
          "name": "",
          "type": "address"
        }
      ],
      "stateMutability": "view",
      "type": "function"
    },
    {
      "inputs": [],
      "name": "renounceOwnership",
      "outputs": [],
      "stateMutability": "nonpayable",
      "type": "function"
    },
    {
      "inputs": [
        {
          "internalType": "address",
          "name": "from",
          "type": "address"
        },
        {
          "internalType": "address",
          "name": "to",
          "type": "address"
        },
        {
          "internalType": "uint256",
          "name": "tokenId",
          "type": "uint256"
        }
      ],
      "name": "safeTransferFrom",
      "outputs": [],
      "stateMutability": "nonpayable",
      "type": "function"
    },
    {
      "inputs": [
        {
          "internalType": "address",
          "name": "from",
          "type": "address"
        },
        {
          "internalType": "address",
          "name": "to",
          "type": "address"
        },
        {
          "internalType": "uint256",
          "name": "tokenId",
          "type": "uint256"
        },
        {
          "internalType": "bytes",
          "name": "_data",
          "type": "bytes"
        }
      ],
      "name": "safeTransferFrom",
      "outputs": [],
      "stateMutability": "nonpayable",
      "type": "function"
    },
    {
      "inputs": [
        {
          "internalType": "address",
          "name": "operator",
          "type": "address"
        },
        {
          "internalType": "bool",
          "name": "approved",
          "type": "bool"
        }
      ],
      "name": "setApprovalForAll",
      "outputs": [],
      "stateMutability": "nonpayable",
      "type": "function"
    },
    {
      "inputs": [
        {
          "internalType": "bytes4",
          "name": "interfaceId",
          "type": "bytes4"
        }
      ],
      "name": "supportsInterface",
      "outputs": [
        {
          "internalType": "bool",
          "name": "",
          "type": "bool"
        }
      ],
      "stateMutability": "view",
      "type": "function"
    },
    {
      "inputs": [],
      "name": "symbol",
      "outputs": [
        {
          "internalType": "string",
          "name": "",
          "type": "string"
        }
      ],
      "stateMutability": "view",
      "type": "function"
    },
    {
      "inputs": [
        {
          "internalType": "uint256",
          "name": "tokenId",
          "type": "uint256"
        }
      ],
      "name": "tokenURI",
      "outputs": [
        {
          "internalType": "string",
          "name": "",
          "type": "string"
        }
      ],
      "stateMutability": "view",
      "type": "function"
    },
    {
      "inputs": [
        {
          "internalType": "address",
          "name": "from",
          "type": "address"
        },
        {
          "internalType": "address",
          "name": "to",
          "type": "address"
        },
        {
          "internalType": "uint256",
          "name": "tokenId",
          "type": "uint256"
        }
      ],
      "name": "transferFrom",
      "outputs": [],
      "stateMutability": "nonpayable",
      "type": "function"
    },
    {
      "inputs": [
        {
          "internalType": "address",
          "name": "newOwner",
          "type": "address"
        }
      ],
      "name": "transferOwnership",
      "outputs": [],
      "stateMutability": "nonpayable",
      "type": "function"
    },
    {
      "inputs": [
        {
          "internalType": "uint256",
          "name": "tokenId",
          "type": "uint256"
        }
      ],
      "name": "getTokenDetails",
      "outputs": [
        {
          "components": [
            {
              "internalType": "uint8",
              "name": "damage",
              "type": "uint8"
            },
            {
              "internalType": "uint8",
              "name": "magic",
              "type": "uint8"
            },
            {
              "internalType": "uint256",
              "name": "lastMeal",
              "type": "uint256"
            },
            {
              "internalType": "uint256",
              "name": "endurance",
              "type": "uint256"
            }
          ],
          "internalType": "struct Token.Pet",
          "name": "",
          "type": "tuple"
        }
      ],
      "stateMutability": "view",
      "type": "function"
    },
    {
      "inputs": [
        {
          "internalType": "uint8",
          "name": "damage",
          "type": "uint8"
        },
        {
          "internalType": "uint8",
          "name": "magic",
          "type": "uint8"
        },
        {
          "internalType": "uint8",
          "name": "endurance",
          "type": "uint8"
        }
      ],
      "name": "mint",
      "outputs": [],
      "stateMutability": "nonpayable",
      "type": "function"
    },
    {
      "inputs": [
        {
          "internalType": "uint256",
          "name": "tokenId",
          "type": "uint256"
        }
      ],
      "name": "feed",
      "outputs": [],
      "stateMutability": "nonpayable",
      "type": "function"
    }
  ],
  "bytecode": "0x608060405260006007553480156200001657600080fd5b50604051620032603803806200326083398181016040528101906200003c91906200028a565b818181600090805190602001906200005692919062000168565b5080600190805190602001906200006f92919062000168565b50505062000092620000866200009a60201b60201c565b620000a260201b60201c565b50506200042e565b600033905090565b6000600660009054906101000a900473ffffffffffffffffffffffffffffffffffffffff16905081600660006101000a81548173ffffffffffffffffffffffffffffffffffffffff021916908373ffffffffffffffffffffffffffffffffffffffff1602179055508173ffffffffffffffffffffffffffffffffffffffff168173ffffffffffffffffffffffffffffffffffffffff167f8be0079c531659141344cd1fd0a4f28419497f9722a3daafe3b4186f6b6457e060405160405180910390a35050565b82805462000176906200039a565b90600052602060002090601f0160209004810192826200019a5760008555620001e6565b82601f10620001b557805160ff1916838001178555620001e6565b82800160010185558215620001e6579182015b82811115620001e5578251825591602001919060010190620001c8565b5b509050620001f59190620001f9565b5090565b5b8082111562000214576000816000905550600101620001fa565b5090565b60006200022f620002298462000331565b620002fd565b9050828152602081018484840111156200024857600080fd5b6200025584828562000364565b509392505050565b600082601f8301126200026f57600080fd5b81516200028184826020860162000218565b91505092915050565b600080604083850312156200029e57600080fd5b600083015167ffffffffffffffff811115620002b957600080fd5b620002c7858286016200025d565b925050602083015167ffffffffffffffff811115620002e557600080fd5b620002f3858286016200025d565b9150509250929050565b6000604051905081810181811067ffffffffffffffff82111715620003275762000326620003ff565b5b8060405250919050565b600067ffffffffffffffff8211156200034f576200034e620003ff565b5b601f19601f8301169050602081019050919050565b60005b838110156200038457808201518184015260208101905062000367565b8381111562000394576000848401525b50505050565b60006002820490506001821680620003b357607f821691505b60208210811415620003ca57620003c9620003d0565b5b50919050565b7f4e487b7100000000000000000000000000000000000000000000000000000000600052602260045260246000fd5b7f4e487b7100000000000000000000000000000000000000000000000000000000600052604160045260246000fd5b612e22806200043e6000396000f3fe608060405234801561001057600080fd5b50600436106101215760003560e01c80638da5cb5b116100ad578063c87b56dd11610071578063c87b56dd14610306578063e6f12af914610336578063e985e9c514610352578063f2fde38b14610382578063f59dfdfb1461039e57610121565b80638da5cb5b1461026257806395d89b4114610280578063a22cb4651461029e578063b88d4fde146102ba578063c1e03728146102d657610121565b806323b872dd116100f457806323b872dd146101c057806342842e0e146101dc5780636352211e146101f857806370a0823114610228578063715018a61461025857610121565b806301ffc9a71461012657806306fdde0314610156578063081812fc14610174578063095ea7b3146101a4575b600080fd5b610140600480360381019061013b9190611f0b565b6103ba565b60405161014d919061276b565b60405180910390f35b61015e61049c565b60405161016b9190612786565b60405180910390f35b61018e60048036038101906101899190611f5d565b61052e565b60405161019b9190612704565b60405180910390f35b6101be60048036038101906101b99190611ecf565b6105b3565b005b6101da60048036038101906101d59190611dc9565b6106cb565b005b6101f660048036038101906101f19190611dc9565b61072b565b005b610212600480360381019061020d9190611f5d565b61074b565b60405161021f9190612704565b60405180910390f35b610242600480360381019061023d9190611d64565b6107fd565b60405161024f91906129c3565b60405180910390f35b6102606108b5565b005b61026a61093d565b6040516102779190612704565b60405180910390f35b610288610967565b6040516102959190612786565b60405180910390f35b6102b860048036038101906102b39190611e93565b6109f9565b005b6102d460048036038101906102cf9190611e18565b610a0f565b005b6102f060048036038101906102eb9190611f5d565b610a71565b6040516102fd91906129a8565b60405180910390f35b610320600480360381019061031b9190611f5d565b610aec565b60405161032d9190612786565b60405180910390f35b610350600480360381019061034b9190611f86565b610b93565b005b61036c60048036038101906103679190611d8d565b610cd0565b604051610379919061276b565b60405180910390f35b61039c60048036038101906103979190611d64565b610d64565b005b6103b860048036038101906103b39190611f5d565b610e5c565b005b60007f80ac58cd000000000000000000000000000000000000000000000000000000007bffffffffffffffffffffffffffffffffffffffffffffffffffffffff1916827bffffffffffffffffffffffffffffffffffffffffffffffffffffffff1916148061048557507f5b5e139f000000000000000000000000000000000000000000000000000000007bffffffffffffffffffffffffffffffffffffffffffffffffffffffff1916827bffffffffffffffffffffffffffffffffffffffffffffffffffffffff1916145b80610495575061049482610eb5565b5b9050919050565b6060600080546104ab90612c00565b80601f01602080910402602001604051908101604052809291908181526020018280546104d790612c00565b80156105245780601f106104f957610100808354040283529160200191610524565b820191906000526020600020905b81548152906001019060200180831161050757829003601f168201915b5050505050905090565b600061053982610f1f565b610578576040517f08c379a000000000000000000000000000000000000000000000000000000000815260040161056f90612908565b60405180910390fd5b6004600083815260200190815260200160002060009054906101000a900473ffffffffffffffffffffffffffffffffffffffff169050919050565b60006105be8261074b565b90508073ffffffffffffffffffffffffffffffffffffffff168373ffffffffffffffffffffffffffffffffffffffff16141561062f576040517f08c379a000000000000000000000000000000000000000000000000000000000815260040161062690612968565b60405180910390fd5b8073ffffffffffffffffffffffffffffffffffffffff1661064e610f8b565b73ffffffffffffffffffffffffffffffffffffffff16148061067d575061067c81610677610f8b565b610cd0565b5b6106bc576040517f08c379a00000000000000000000000000000000000000000000000000000000081526004016106b390612888565b60405180910390fd5b6106c68383610f93565b505050565b6106dc6106d6610f8b565b8261104c565b61071b576040517f08c379a000000000000000000000000000000000000000000000000000000000815260040161071290612988565b60405180910390fd5b61072683838361112a565b505050565b61074683838360405180602001604052806000815250610a0f565b505050565b6000806002600084815260200190815260200160002060009054906101000a900473ffffffffffffffffffffffffffffffffffffffff169050600073ffffffffffffffffffffffffffffffffffffffff168173ffffffffffffffffffffffffffffffffffffffff1614156107f4576040517f08c379a00000000000000000000000000000000000000000000000000000000081526004016107eb906128c8565b60405180910390fd5b80915050919050565b60008073ffffffffffffffffffffffffffffffffffffffff168273ffffffffffffffffffffffffffffffffffffffff16141561086e576040517f08c379a0000000000000000000000000000000000000000000000000000000008152600401610865906128a8565b60405180910390fd5b600360008373ffffffffffffffffffffffffffffffffffffffff1673ffffffffffffffffffffffffffffffffffffffff168152602001908152602001600020549050919050565b6108bd610f8b565b73ffffffffffffffffffffffffffffffffffffffff166108db61093d565b73ffffffffffffffffffffffffffffffffffffffff1614610931576040517f08c379a000000000000000000000000000000000000000000000000000000000815260040161092890612928565b60405180910390fd5b61093b6000611391565b565b6000600660009054906101000a900473ffffffffffffffffffffffffffffffffffffffff16905090565b60606001805461097690612c00565b80601f01602080910402602001604051908101604052809291908181526020018280546109a290612c00565b80156109ef5780601f106109c4576101008083540402835291602001916109ef565b820191906000526020600020905b8154815290600101906020018083116109d257829003601f168201915b5050505050905090565b610a0b610a04610f8b565b8383611457565b5050565b610a20610a1a610f8b565b8361104c565b610a5f576040517f08c379a0000000000000000000000000000000000000000000000000000000008152600401610a5690612988565b60405180910390fd5b610a6b848484846115c4565b50505050565b610a79611c50565b600860008381526020019081526020016000206040518060800160405290816000820160009054906101000a900460ff1660ff1660ff1681526020016000820160019054906101000a900460ff1660ff1660ff168152602001600182015481526020016002820154815250509050919050565b6060610af782610f1f565b610b36576040517f08c379a0000000000000000000000000000000000000000000000000000000008152600401610b2d90612948565b60405180910390fd5b6000610b40611620565b90506000815111610b605760405180602001604052806000815250610b8b565b80610b6a84611637565b604051602001610b7b9291906126e0565b6040516020818303038152906040525b915050919050565b610b9b610f8b565b73ffffffffffffffffffffffffffffffffffffffff16610bb961093d565b73ffffffffffffffffffffffffffffffffffffffff1614610c0f576040517f08c379a0000000000000000000000000000000000000000000000000000000008152600401610c0690612928565b60405180910390fd5b60405180608001604052808460ff1681526020018360ff1681526020014281526020018260ff1681525060086000600754815260200190815260200160002060008201518160000160006101000a81548160ff021916908360ff16021790555060208201518160000160016101000a81548160ff021916908360ff1602179055506040820151816001015560608201518160020155905050610cb3336007546117e4565b60076000815480929190610cc690612c32565b9190505550505050565b6000600560008473ffffffffffffffffffffffffffffffffffffffff1673ffffffffffffffffffffffffffffffffffffffff16815260200190815260200160002060008373ffffffffffffffffffffffffffffffffffffffff1673ffffffffffffffffffffffffffffffffffffffff16815260200190815260200160002060009054906101000a900460ff16905092915050565b610d6c610f8b565b73ffffffffffffffffffffffffffffffffffffffff16610d8a61093d565b73ffffffffffffffffffffffffffffffffffffffff1614610de0576040517f08c379a0000000000000000000000000000000000000000000000000000000008152600401610dd790612928565b60405180910390fd5b600073ffffffffffffffffffffffffffffffffffffffff168173ffffffffffffffffffffffffffffffffffffffff161415610e50576040517f08c379a0000000000000000000000000000000000000000000000000000000008152600401610e47906127c8565b60405180910390fd5b610e5981611391565b50565b600060086000600754815260200190815260200160002090504281600201548260010154610e8a9190612a82565b11610e9457600080fd5b42600860006007548152602001908152602001600020600101819055505050565b60007f01ffc9a7000000000000000000000000000000000000000000000000000000007bffffffffffffffffffffffffffffffffffffffffffffffffffffffff1916827bffffffffffffffffffffffffffffffffffffffffffffffffffffffff1916149050919050565b60008073ffffffffffffffffffffffffffffffffffffffff166002600084815260200190815260200160002060009054906101000a900473ffffffffffffffffffffffffffffffffffffffff1673ffffffffffffffffffffffffffffffffffffffff1614159050919050565b600033905090565b816004600083815260200190815260200160002060006101000a81548173ffffffffffffffffffffffffffffffffffffffff021916908373ffffffffffffffffffffffffffffffffffffffff160217905550808273ffffffffffffffffffffffffffffffffffffffff166110068361074b565b73ffffffffffffffffffffffffffffffffffffffff167f8c5be1e5ebec7d5bd14f71427d1e84f3dd0314c0f7b2291e5b200ac8c7c3b92560405160405180910390a45050565b600061105782610f1f565b611096576040517f08c379a000000000000000000000000000000000000000000000000000000000815260040161108d90612868565b60405180910390fd5b60006110a18361074b565b90508073ffffffffffffffffffffffffffffffffffffffff168473ffffffffffffffffffffffffffffffffffffffff16148061111057508373ffffffffffffffffffffffffffffffffffffffff166110f88461052e565b73ffffffffffffffffffffffffffffffffffffffff16145b8061112157506111208185610cd0565b5b91505092915050565b8273ffffffffffffffffffffffffffffffffffffffff1661114a8261074b565b73ffffffffffffffffffffffffffffffffffffffff16146111a0576040517f08c379a0000000000000000000000000000000000000000000000000000000008152600401611197906127e8565b60405180910390fd5b600073ffffffffffffffffffffffffffffffffffffffff168273ffffffffffffffffffffffffffffffffffffffff161415611210576040517f08c379a000000000000000000000000000000000000000000000000000000000815260040161120790612828565b60405180910390fd5b61121b838383611802565b611226600082610f93565b6001600360008573ffffffffffffffffffffffffffffffffffffffff1673ffffffffffffffffffffffffffffffffffffffff16815260200190815260200160002060008282546112769190612b09565b925050819055506001600360008473ffffffffffffffffffffffffffffffffffffffff1673ffffffffffffffffffffffffffffffffffffffff16815260200190815260200160002060008282546112cd9190612a82565b92505081905550816002600083815260200190815260200160002060006101000a81548173ffffffffffffffffffffffffffffffffffffffff021916908373ffffffffffffffffffffffffffffffffffffffff160217905550808273ffffffffffffffffffffffffffffffffffffffff168473ffffffffffffffffffffffffffffffffffffffff167fddf252ad1be2c89b69c2b068fc378daa952ba7f163c4a11628f55a4df523b3ef60405160405180910390a461138c838383611840565b505050565b6000600660009054906101000a900473ffffffffffffffffffffffffffffffffffffffff16905081600660006101000a81548173ffffffffffffffffffffffffffffffffffffffff021916908373ffffffffffffffffffffffffffffffffffffffff1602179055508173ffffffffffffffffffffffffffffffffffffffff168173ffffffffffffffffffffffffffffffffffffffff167f8be0079c531659141344cd1fd0a4f28419497f9722a3daafe3b4186f6b6457e060405160405180910390a35050565b8173ffffffffffffffffffffffffffffffffffffffff168373ffffffffffffffffffffffffffffffffffffffff1614156114c6576040517f08c379a00000000000000000000000000000000000000000000000000000000081526004016114bd90612848565b60405180910390fd5b80600560008573ffffffffffffffffffffffffffffffffffffffff1673ffffffffffffffffffffffffffffffffffffffff16815260200190815260200160002060008473ffffffffffffffffffffffffffffffffffffffff1673ffffffffffffffffffffffffffffffffffffffff16815260200190815260200160002060006101000a81548160ff0219169083151502179055508173ffffffffffffffffffffffffffffffffffffffff168373ffffffffffffffffffffffffffffffffffffffff167f17307eab39ab6107e8899845ad3d59bd9653f200f220920489ca2b5937696c31836040516115b7919061276b565b60405180910390a3505050565b6115cf84848461112a565b6115db84848484611845565b61161a576040517f08c379a0000000000000000000000000000000000000000000000000000000008152600401611611906127a8565b60405180910390fd5b50505050565b606060405180602001604052806000815250905090565b6060600082141561167f576040518060400160405280600181526020017f300000000000000000000000000000000000000000000000000000000000000081525090506117df565b600082905060005b600082146116b157808061169a90612c32565b915050600a826116aa9190612ad8565b9150611687565b60008167ffffffffffffffff8111156116f3577f4e487b7100000000000000000000000000000000000000000000000000000000600052604160045260246000fd5b6040519080825280601f01601f1916602001820160405280156117255781602001600182028036833780820191505090505b5090505b600085146117d85760018261173e9190612b09565b9150600a8561174d9190612c7b565b60306117599190612a82565b60f81b818381518110611795577f4e487b7100000000000000000000000000000000000000000000000000000000600052603260045260246000fd5b60200101907effffffffffffffffffffffffffffffffffffffffffffffffffffffffffffff1916908160001a905350600a856117d19190612ad8565b9450611729565b8093505050505b919050565b6117fe8282604051806020016040528060008152506119dc565b5050565b6000600860006007548152602001908152602001600020905042816002015482600101546118309190612a82565b1161183a57600080fd5b50505050565b505050565b60006118668473ffffffffffffffffffffffffffffffffffffffff16611a37565b156119cf578373ffffffffffffffffffffffffffffffffffffffff1663150b7a0261188f610f8b565b8786866040518563ffffffff1660e01b81526004016118b1949392919061271f565b602060405180830381600087803b1580156118cb57600080fd5b505af19250505080156118fc57506040513d601f19601f820116820180604052508101906118f99190611f34565b60015b61197f573d806000811461192c576040519150601f19603f3d011682016040523d82523d6000602084013e611931565b606091505b50600081511415611977576040517f08c379a000000000000000000000000000000000000000000000000000000000815260040161196e906127a8565b60405180910390fd5b805181602001fd5b63150b7a0260e01b7bffffffffffffffffffffffffffffffffffffffffffffffffffffffff1916817bffffffffffffffffffffffffffffffffffffffffffffffffffffffff1916149150506119d4565b600190505b949350505050565b6119e68383611a76565b6119f36000848484611845565b611a32576040517f08c379a0000000000000000000000000000000000000000000000000000000008152600401611a29906127a8565b60405180910390fd5b505050565b6000808273ffffffffffffffffffffffffffffffffffffffff16803b806020016040519081016040528181526000908060200190933c51119050919050565b600073ffffffffffffffffffffffffffffffffffffffff168273ffffffffffffffffffffffffffffffffffffffff161415611ae6576040517f08c379a0000000000000000000000000000000000000000000000000000000008152600401611add906128e8565b60405180910390fd5b611aef81610f1f565b15611b2f576040517f08c379a0000000000000000000000000000000000000000000000000000000008152600401611b2690612808565b60405180910390fd5b611b3b60008383611802565b6001600360008473ffffffffffffffffffffffffffffffffffffffff1673ffffffffffffffffffffffffffffffffffffffff1681526020019081526020016000206000828254611b8b9190612a82565b92505081905550816002600083815260200190815260200160002060006101000a81548173ffffffffffffffffffffffffffffffffffffffff021916908373ffffffffffffffffffffffffffffffffffffffff160217905550808273ffffffffffffffffffffffffffffffffffffffff16600073ffffffffffffffffffffffffffffffffffffffff167fddf252ad1be2c89b69c2b068fc378daa952ba7f163c4a11628f55a4df523b3ef60405160405180910390a4611c4c60008383611840565b5050565b6040518060800160405280600060ff168152602001600060ff16815260200160008152602001600081525090565b6000611c91611c8c84612a0f565b6129de565b905082815260208101848484011115611ca957600080fd5b611cb4848285612bbe565b509392505050565b600081359050611ccb81612d79565b92915050565b600081359050611ce081612d90565b92915050565b600081359050611cf581612da7565b92915050565b600081519050611d0a81612da7565b92915050565b600082601f830112611d2157600080fd5b8135611d31848260208601611c7e565b91505092915050565b600081359050611d4981612dbe565b92915050565b600081359050611d5e81612dd5565b92915050565b600060208284031215611d7657600080fd5b6000611d8484828501611cbc565b91505092915050565b60008060408385031215611da057600080fd5b6000611dae85828601611cbc565b9250506020611dbf85828601611cbc565b9150509250929050565b600080600060608486031215611dde57600080fd5b6000611dec86828701611cbc565b9350506020611dfd86828701611cbc565b9250506040611e0e86828701611d3a565b9150509250925092565b60008060008060808587031215611e2e57600080fd5b6000611e3c87828801611cbc565b9450506020611e4d87828801611cbc565b9350506040611e5e87828801611d3a565b925050606085013567ffffffffffffffff811115611e7b57600080fd5b611e8787828801611d10565b91505092959194509250565b60008060408385031215611ea657600080fd5b6000611eb485828601611cbc565b9250506020611ec585828601611cd1565b9150509250929050565b60008060408385031215611ee257600080fd5b6000611ef085828601611cbc565b9250506020611f0185828601611d3a565b9150509250929050565b600060208284031215611f1d57600080fd5b6000611f2b84828501611ce6565b91505092915050565b600060208284031215611f4657600080fd5b6000611f5484828501611cfb565b91505092915050565b600060208284031215611f6f57600080fd5b6000611f7d84828501611d3a565b91505092915050565b600080600060608486031215611f9b57600080fd5b6000611fa986828701611d4f565b9350506020611fba86828701611d4f565b9250506040611fcb86828701611d4f565b9150509250925092565b611fde81612b3d565b82525050565b611fed81612b4f565b82525050565b6000611ffe82612a3f565b6120088185612a55565b9350612018818560208601612bcd565b61202181612d68565b840191505092915050565b600061203782612a4a565b6120418185612a66565b9350612051818560208601612bcd565b61205a81612d68565b840191505092915050565b600061207082612a4a565b61207a8185612a77565b935061208a818560208601612bcd565b80840191505092915050565b60006120a3603283612a66565b91507f4552433732313a207472616e7366657220746f206e6f6e20455243373231526560008301527f63656976657220696d706c656d656e74657200000000000000000000000000006020830152604082019050919050565b6000612109602683612a66565b91507f4f776e61626c653a206e6577206f776e657220697320746865207a65726f206160008301527f64647265737300000000000000000000000000000000000000000000000000006020830152604082019050919050565b600061216f602583612a66565b91507f4552433732313a207472616e736665722066726f6d20696e636f72726563742060008301527f6f776e65720000000000000000000000000000000000000000000000000000006020830152604082019050919050565b60006121d5601c83612a66565b91507f4552433732313a20746f6b656e20616c7265616479206d696e746564000000006000830152602082019050919050565b6000612215602483612a66565b91507f4552433732313a207472616e7366657220746f20746865207a65726f2061646460008301527f72657373000000000000000000000000000000000000000000000000000000006020830152604082019050919050565b600061227b601983612a66565b91507f4552433732313a20617070726f766520746f2063616c6c6572000000000000006000830152602082019050919050565b60006122bb602c83612a66565b91507f4552433732313a206f70657261746f7220717565727920666f72206e6f6e657860008301527f697374656e7420746f6b656e00000000000000000000000000000000000000006020830152604082019050919050565b6000612321603883612a66565b91507f4552433732313a20617070726f76652063616c6c6572206973206e6f74206f7760008301527f6e6572206e6f7220617070726f76656420666f7220616c6c00000000000000006020830152604082019050919050565b6000612387602a83612a66565b91507f4552433732313a2062616c616e636520717565727920666f7220746865207a6560008301527f726f2061646472657373000000000000000000000000000000000000000000006020830152604082019050919050565b60006123ed602983612a66565b91507f4552433732313a206f776e657220717565727920666f72206e6f6e657869737460008301527f656e7420746f6b656e00000000000000000000000000000000000000000000006020830152604082019050919050565b6000612453602083612a66565b91507f4552433732313a206d696e7420746f20746865207a65726f20616464726573736000830152602082019050919050565b6000612493602c83612a66565b91507f4552433732313a20617070726f76656420717565727920666f72206e6f6e657860008301527f697374656e7420746f6b656e00000000000000000000000000000000000000006020830152604082019050919050565b60006124f9602083612a66565b91507f4f776e61626c653a2063616c6c6572206973206e6f7420746865206f776e65726000830152602082019050919050565b6000612539602f83612a66565b91507f4552433732314d657461646174613a2055524920717565727920666f72206e6f60008301527f6e6578697374656e7420746f6b656e00000000000000000000000000000000006020830152604082019050919050565b600061259f602183612a66565b91507f4552433732313a20617070726f76616c20746f2063757272656e74206f776e6560008301527f72000000000000000000000000000000000000000000000000000000000000006020830152604082019050919050565b6000612605603183612a66565b91507f4552433732313a207472616e736665722063616c6c6572206973206e6f74206f60008301527f776e6572206e6f7220617070726f7665640000000000000000000000000000006020830152604082019050919050565b60808201600082015161267460008501826126d1565b50602082015161268760208501826126d1565b50604082015161269a60408501826126b3565b5060608201516126ad60608501826126b3565b50505050565b6126bc81612ba7565b82525050565b6126cb81612ba7565b82525050565b6126da81612bb1565b82525050565b60006126ec8285612065565b91506126f88284612065565b91508190509392505050565b60006020820190506127196000830184611fd5565b92915050565b60006080820190506127346000830187611fd5565b6127416020830186611fd5565b61274e60408301856126c2565b81810360608301526127608184611ff3565b905095945050505050565b60006020820190506127806000830184611fe4565b92915050565b600060208201905081810360008301526127a0818461202c565b905092915050565b600060208201905081810360008301526127c181612096565b9050919050565b600060208201905081810360008301526127e1816120fc565b9050919050565b6000602082019050818103600083015261280181612162565b9050919050565b60006020820190508181036000830152612821816121c8565b9050919050565b6000602082019050818103600083015261284181612208565b9050919050565b600060208201905081810360008301526128618161226e565b9050919050565b60006020820190508181036000830152612881816122ae565b9050919050565b600060208201905081810360008301526128a181612314565b9050919050565b600060208201905081810360008301526128c18161237a565b9050919050565b600060208201905081810360008301526128e1816123e0565b9050919050565b6000602082019050818103600083015261290181612446565b9050919050565b6000602082019050818103600083015261292181612486565b9050919050565b60006020820190508181036000830152612941816124ec565b9050919050565b600060208201905081810360008301526129618161252c565b9050919050565b6000602082019050818103600083015261298181612592565b9050919050565b600060208201905081810360008301526129a1816125f8565b9050919050565b60006080820190506129bd600083018461265e565b92915050565b60006020820190506129d860008301846126c2565b92915050565b6000604051905081810181811067ffffffffffffffff82111715612a0557612a04612d39565b5b8060405250919050565b600067ffffffffffffffff821115612a2a57612a29612d39565b5b601f19601f8301169050602081019050919050565b600081519050919050565b600081519050919050565b600082825260208201905092915050565b600082825260208201905092915050565b600081905092915050565b6000612a8d82612ba7565b9150612a9883612ba7565b9250827fffffffffffffffffffffffffffffffffffffffffffffffffffffffffffffffff03821115612acd57612acc612cac565b5b828201905092915050565b6000612ae382612ba7565b9150612aee83612ba7565b925082612afe57612afd612cdb565b5b828204905092915050565b6000612b1482612ba7565b9150612b1f83612ba7565b925082821015612b3257612b31612cac565b5b828203905092915050565b6000612b4882612b87565b9050919050565b60008115159050919050565b60007fffffffff0000000000000000000000000000000000000000000000000000000082169050919050565b600073ffffffffffffffffffffffffffffffffffffffff82169050919050565b6000819050919050565b600060ff82169050919050565b82818337600083830152505050565b60005b83811015612beb578082015181840152602081019050612bd0565b83811115612bfa576000848401525b50505050565b60006002820490506001821680612c1857607f821691505b60208210811415612c2c57612c2b612d0a565b5b50919050565b6000612c3d82612ba7565b91507fffffffffffffffffffffffffffffffffffffffffffffffffffffffffffffffff821415612c7057612c6f612cac565b5b600182019050919050565b6000612c8682612ba7565b9150612c9183612ba7565b925082612ca157612ca0612cdb565b5b828206905092915050565b7f4e487b7100000000000000000000000000000000000000000000000000000000600052601160045260246000fd5b7f4e487b7100000000000000000000000000000000000000000000000000000000600052601260045260246000fd5b7f4e487b7100000000000000000000000000000000000000000000000000000000600052602260045260246000fd5b7f4e487b7100000000000000000000000000000000000000000000000000000000600052604160045260246000fd5b6000601f19601f8301169050919050565b612d8281612b3d565b8114612d8d57600080fd5b50565b612d9981612b4f565b8114612da457600080fd5b50565b612db081612b5b565b8114612dbb57600080fd5b50565b612dc781612ba7565b8114612dd257600080fd5b50565b612dde81612bb1565b8114612de957600080fd5b5056fea2646970667358221220ce67e2bd7876732633bf8917d11c69318032c4820771557b11e67bb653e67f9f64736f6c63430008000033",
  "immutableReferences": {},
  "source": "pragma solidity 0.8.0;\r\n\r\nimport \"../node_modules/@openzeppelin/contracts/token/ERC721/ERC721.sol\";\r\nimport \"../node_modules/@openzeppelin/contracts/access/Ownable.sol\";\r\n\r\ncontract Token is ERC721, Ownable {\r\n    struct Pet {\r\n        uint8 damage;\r\n        uint8 magic;\r\n        uint256 lastMeal;\r\n        uint256 endurance;\r\n    }\r\n\r\n    uint256 nextId = 0;\r\n\r\n    mapping(uint256 => Pet) private _tokenDetails;\r\n\r\n    constructor(string memory name, string memory symbol)\r\n        ERC721(name, symbol)\r\n    {}\r\n\r\n    function getTokenDetails(uint256 tokenId) public view returns (Pet memory) {\r\n        return _tokenDetails[tokenId];\r\n    }\r\n\r\n    function mint(\r\n        uint8 damage,\r\n        uint8 magic,\r\n        uint8 endurance\r\n    ) public onlyOwner {\r\n        _tokenDetails[nextId] = Pet(damage, magic, block.timestamp, endurance);\r\n        _safeMint(msg.sender, nextId);\r\n        nextId++;\r\n    }\r\n\r\n    function feed(uint256 tokenId) public {\r\n        Pet storage pet = _tokenDetails[nextId];\r\n        require(pet.lastMeal + pet.endurance > block.timestamp);\r\n        _tokenDetails[nextId].lastMeal = block.timestamp;\r\n    }\r\n\r\n    function _beforeTokenTransfer(\r\n        address from,\r\n        address to,\r\n        uint256 tokenId\r\n    ) internal override {\r\n        Pet storage pet = _tokenDetails[nextId];\r\n        require(pet.lastMeal + pet.endurance > block.timestamp);\r\n    }\r\n}\r\n",
  "sourcePath": "E:\\working_folder\\NFT Games\\contracts\\Token.sol",
  "compiler": {
    "name": "solc",
    "version": "0.8.0+commit.c7dfd78e.Emscripten.clang"
  },
  "schemaVersion": "3.4.5",
  "updatedAt": "2022-03-07T21:30:23.753Z",
  "devdoc": {
    "kind": "dev",
    "methods": {
      "approve(address,uint256)": {
        "details": "See {IERC721-approve}."
      },
      "balanceOf(address)": {
        "details": "See {IERC721-balanceOf}."
      },
      "getApproved(uint256)": {
        "details": "See {IERC721-getApproved}."
      },
      "isApprovedForAll(address,address)": {
        "details": "See {IERC721-isApprovedForAll}."
      },
      "name()": {
        "details": "See {IERC721Metadata-name}."
      },
      "owner()": {
        "details": "Returns the address of the current owner."
      },
      "ownerOf(uint256)": {
        "details": "See {IERC721-ownerOf}."
      },
      "renounceOwnership()": {
        "details": "Leaves the contract without owner. It will not be possible to call `onlyOwner` functions anymore. Can only be called by the current owner. NOTE: Renouncing ownership will leave the contract without an owner, thereby removing any functionality that is only available to the owner."
      },
      "safeTransferFrom(address,address,uint256)": {
        "details": "See {IERC721-safeTransferFrom}."
      },
      "safeTransferFrom(address,address,uint256,bytes)": {
        "details": "See {IERC721-safeTransferFrom}."
      },
      "setApprovalForAll(address,bool)": {
        "details": "See {IERC721-setApprovalForAll}."
      },
      "supportsInterface(bytes4)": {
        "details": "See {IERC165-supportsInterface}."
      },
      "symbol()": {
        "details": "See {IERC721Metadata-symbol}."
      },
      "tokenURI(uint256)": {
        "details": "See {IERC721Metadata-tokenURI}."
      },
      "transferFrom(address,address,uint256)": {
        "details": "See {IERC721-transferFrom}."
      },
      "transferOwnership(address)": {
        "details": "Transfers ownership of the contract to a new account (`newOwner`). Can only be called by the current owner."
      }
    },
    "version": 1
  },
  "userdoc": {
    "kind": "user",
    "methods": {},
    "version": 1
  }
}