{
  "contractName": "Token",
  "abi": [
    {
      "inputs": [
        {
          "internalType": "string",
          "name": "name",
          "type": "string"
        },
        {
          "internalType": "string",
          "name": "symbol",
          "type": "string"
        }
      ],
      "stateMutability": "nonpayable",
      "type": "constructor"
    },
    {
      "anonymous": false,
      "inputs": [
        {
          "indexed": true,
          "internalType": "address",
          "name": "owner",
          "type": "address"
        },
        {
          "indexed": true,
          "internalType": "address",
          "name": "approved",
          "type": "address"
        },
        {
          "indexed": true,
          "internalType": "uint256",
          "name": "tokenId",
          "type": "uint256"
        }
      ],
      "name": "Approval",
      "type": "event"
    },
    {
      "anonymous": false,
      "inputs": [
        {
          "indexed": true,
          "internalType": "address",
          "name": "owner",
          "type": "address"
        },
        {
          "indexed": true,
          "internalType": "address",
          "name": "operator",
          "type": "address"
        },
        {
          "indexed": false,
          "internalType": "bool",
          "name": "approved",
          "type": "bool"
        }
      ],
      "name": "ApprovalForAll",
      "type": "event"
    },
    {
      "anonymous": false,
      "inputs": [
        {
          "indexed": true,
          "internalType": "address",
          "name": "previousOwner",
          "type": "address"
        },
        {
          "indexed": true,
          "internalType": "address",
          "name": "newOwner",
          "type": "address"
        }
      ],
      "name": "OwnershipTransferred",
      "type": "event"
    },
    {
      "anonymous": false,
      "inputs": [
        {
          "indexed": true,
          "internalType": "address",
          "name": "from",
          "type": "address"
        },
        {
          "indexed": true,
          "internalType": "address",
          "name": "to",
          "type": "address"
        },
        {
          "indexed": true,
          "internalType": "uint256",
          "name": "tokenId",
          "type": "uint256"
        }
      ],
      "name": "Transfer",
      "type": "event"
    },
    {
      "inputs": [
        {
          "internalType": "address",
          "name": "to",
          "type": "address"
        },
        {
          "internalType": "uint256",
          "name": "tokenId",
          "type": "uint256"
        }
      ],
      "name": "approve",
      "outputs": [],
      "stateMutability": "nonpayable",
      "type": "function"
    },
    {
      "inputs": [
        {
          "internalType": "address",
          "name": "owner",
          "type": "address"
        }
      ],
      "name": "balanceOf",
      "outputs": [
        {
          "internalType": "uint256",
          "name": "",
          "type": "uint256"
        }
      ],
      "stateMutability": "view",
      "type": "function"
    },
    {
      "inputs": [
        {
          "internalType": "uint256",
          "name": "tokenId",
          "type": "uint256"
        }
      ],
      "name": "getApproved",
      "outputs": [
        {
          "internalType": "address",
          "name": "",
          "type": "address"
        }
      ],
      "stateMutability": "view",
      "type": "function"
    },
    {
      "inputs": [
        {
          "internalType": "address",
          "name": "owner",
          "type": "address"
        },
        {
          "internalType": "address",
          "name": "operator",
          "type": "address"
        }
      ],
      "name": "isApprovedForAll",
      "outputs": [
        {
          "internalType": "bool",
          "name": "",
          "type": "bool"
        }
      ],
      "stateMutability": "view",
      "type": "function"
    },
    {
      "inputs": [],
      "name": "name",
      "outputs": [
        {
          "internalType": "string",
          "name": "",
          "type": "string"
        }
      ],
      "stateMutability": "view",
      "type": "function"
    },
    {
      "inputs": [],
      "name": "owner",
      "outputs": [
        {
          "internalType": "address",
          "name": "",
          "type": "address"
        }
      ],
      "stateMutability": "view",
      "type": "function"
    },
    {
      "inputs": [
        {
          "internalType": "uint256",
          "name": "tokenId",
          "type": "uint256"
        }
      ],
      "name": "ownerOf",
      "outputs": [
        {
          "internalType": "address",
          "name": "",
          "type": "address"
        }
      ],
      "stateMutability": "view",
      "type": "function"
    },
    {
      "inputs": [],
      "name": "renounceOwnership",
      "outputs": [],
      "stateMutability": "nonpayable",
      "type": "function"
    },
    {
      "inputs": [
        {
          "internalType": "address",
          "name": "from",
          "type": "address"
        },
        {
          "internalType": "address",
          "name": "to",
          "type": "address"
        },
        {
          "internalType": "uint256",
          "name": "tokenId",
          "type": "uint256"
        }
      ],
      "name": "safeTransferFrom",
      "outputs": [],
      "stateMutability": "nonpayable",
      "type": "function"
    },
    {
      "inputs": [
        {
          "internalType": "address",
          "name": "from",
          "type": "address"
        },
        {
          "internalType": "address",
          "name": "to",
          "type": "address"
        },
        {
          "internalType": "uint256",
          "name": "tokenId",
          "type": "uint256"
        },
        {
          "internalType": "bytes",
          "name": "_data",
          "type": "bytes"
        }
      ],
      "name": "safeTransferFrom",
      "outputs": [],
      "stateMutability": "nonpayable",
      "type": "function"
    },
    {
      "inputs": [
        {
          "internalType": "address",
          "name": "operator",
          "type": "address"
        },
        {
          "internalType": "bool",
          "name": "approved",
          "type": "bool"
        }
      ],
      "name": "setApprovalForAll",
      "outputs": [],
      "stateMutability": "nonpayable",
      "type": "function"
    },
    {
      "inputs": [
        {
          "internalType": "bytes4",
          "name": "interfaceId",
          "type": "bytes4"
        }
      ],
      "name": "supportsInterface",
      "outputs": [
        {
          "internalType": "bool",
          "name": "",
          "type": "bool"
        }
      ],
      "stateMutability": "view",
      "type": "function"
    },
    {
      "inputs": [],
      "name": "symbol",
      "outputs": [
        {
          "internalType": "string",
          "name": "",
          "type": "string"
        }
      ],
      "stateMutability": "view",
      "type": "function"
    },
    {
      "inputs": [
        {
          "internalType": "uint256",
          "name": "tokenId",
          "type": "uint256"
        }
      ],
      "name": "tokenURI",
      "outputs": [
        {
          "internalType": "string",
          "name": "",
          "type": "string"
        }
      ],
      "stateMutability": "view",
      "type": "function"
    },
    {
      "inputs": [
        {
          "internalType": "address",
          "name": "from",
          "type": "address"
        },
        {
          "internalType": "address",
          "name": "to",
          "type": "address"
        },
        {
          "internalType": "uint256",
          "name": "tokenId",
          "type": "uint256"
        }
      ],
      "name": "transferFrom",
      "outputs": [],
      "stateMutability": "nonpayable",
      "type": "function"
    },
    {
      "inputs": [
        {
          "internalType": "address",
          "name": "newOwner",
          "type": "address"
        }
      ],
      "name": "transferOwnership",
      "outputs": [],
      "stateMutability": "nonpayable",
      "type": "function"
    },
    {
      "inputs": [
        {
          "internalType": "uint8",
          "name": "damage",
          "type": "uint8"
        },
        {
          "internalType": "uint8",
          "name": "magic",
          "type": "uint8"
        },
        {
          "internalType": "uint8",
          "name": "endurance",
          "type": "uint8"
        }
      ],
      "name": "mint",
      "outputs": [],
      "stateMutability": "nonpayable",
      "type": "function"
    },
    {
      "inputs": [
        {
          "internalType": "uint256",
          "name": "tokenId",
          "type": "uint256"
        }
      ],
      "name": "feed",
      "outputs": [],
      "stateMutability": "nonpayable",
      "type": "function"
    }
  ],
  "bytecode": "0x608060405260006007553480156200001657600080fd5b50604051620030ee380380620030ee83398181016040528101906200003c91906200028a565b818181600090805190602001906200005692919062000168565b5080600190805190602001906200006f92919062000168565b50505062000092620000866200009a60201b60201c565b620000a260201b60201c565b50506200042e565b600033905090565b6000600660009054906101000a900473ffffffffffffffffffffffffffffffffffffffff16905081600660006101000a81548173ffffffffffffffffffffffffffffffffffffffff021916908373ffffffffffffffffffffffffffffffffffffffff1602179055508173ffffffffffffffffffffffffffffffffffffffff168173ffffffffffffffffffffffffffffffffffffffff167f8be0079c531659141344cd1fd0a4f28419497f9722a3daafe3b4186f6b6457e060405160405180910390a35050565b82805462000176906200039a565b90600052602060002090601f0160209004810192826200019a5760008555620001e6565b82601f10620001b557805160ff1916838001178555620001e6565b82800160010185558215620001e6579182015b82811115620001e5578251825591602001919060010190620001c8565b5b509050620001f59190620001f9565b5090565b5b8082111562000214576000816000905550600101620001fa565b5090565b60006200022f620002298462000331565b620002fd565b9050828152602081018484840111156200024857600080fd5b6200025584828562000364565b509392505050565b600082601f8301126200026f57600080fd5b81516200028184826020860162000218565b91505092915050565b600080604083850312156200029e57600080fd5b600083015167ffffffffffffffff811115620002b957600080fd5b620002c7858286016200025d565b925050602083015167ffffffffffffffff811115620002e557600080fd5b620002f3858286016200025d565b9150509250929050565b6000604051905081810181811067ffffffffffffffff82111715620003275762000326620003ff565b5b8060405250919050565b600067ffffffffffffffff8211156200034f576200034e620003ff565b5b601f19601f8301169050602081019050919050565b60005b838110156200038457808201518184015260208101905062000367565b8381111562000394576000848401525b50505050565b60006002820490506001821680620003b357607f821691505b60208210811415620003ca57620003c9620003d0565b5b50919050565b7f4e487b7100000000000000000000000000000000000000000000000000000000600052602260045260246000fd5b7f4e487b7100000000000000000000000000000000000000000000000000000000600052604160045260246000fd5b612cb0806200043e6000396000f3fe608060405234801561001057600080fd5b50600436106101165760003560e01c80638da5cb5b116100a2578063c87b56dd11610071578063c87b56dd146102cb578063e6f12af9146102fb578063e985e9c514610317578063f2fde38b14610347578063f59dfdfb1461036357610116565b80638da5cb5b1461025757806395d89b4114610275578063a22cb46514610293578063b88d4fde146102af57610116565b806323b872dd116100e957806323b872dd146101b557806342842e0e146101d15780636352211e146101ed57806370a082311461021d578063715018a61461024d57610116565b806301ffc9a71461011b57806306fdde031461014b578063081812fc14610169578063095ea7b314610199575b600080fd5b61013560048036038101906101309190611e27565b61037f565b6040516101429190612614565b60405180910390f35b610153610461565b604051610160919061262f565b60405180910390f35b610183600480360381019061017e9190611e79565b6104f3565b60405161019091906125ad565b60405180910390f35b6101b360048036038101906101ae9190611deb565b610578565b005b6101cf60048036038101906101ca9190611ce5565b610690565b005b6101eb60048036038101906101e69190611ce5565b6106f0565b005b61020760048036038101906102029190611e79565b610710565b60405161021491906125ad565b60405180910390f35b61023760048036038101906102329190611c80565b6107c2565b6040516102449190612851565b60405180910390f35b61025561087a565b005b61025f610902565b60405161026c91906125ad565b60405180910390f35b61027d61092c565b60405161028a919061262f565b60405180910390f35b6102ad60048036038101906102a89190611daf565b6109be565b005b6102c960048036038101906102c49190611d34565b6109d4565b005b6102e560048036038101906102e09190611e79565b610a36565b6040516102f2919061262f565b60405180910390f35b61031560048036038101906103109190611ea2565b610add565b005b610331600480360381019061032c9190611ca9565b610c1a565b60405161033e9190612614565b60405180910390f35b610361600480360381019061035c9190611c80565b610cae565b005b61037d60048036038101906103789190611e79565b610da6565b005b60007f80ac58cd000000000000000000000000000000000000000000000000000000007bffffffffffffffffffffffffffffffffffffffffffffffffffffffff1916827bffffffffffffffffffffffffffffffffffffffffffffffffffffffff1916148061044a57507f5b5e139f000000000000000000000000000000000000000000000000000000007bffffffffffffffffffffffffffffffffffffffffffffffffffffffff1916827bffffffffffffffffffffffffffffffffffffffffffffffffffffffff1916145b8061045a575061045982610dff565b5b9050919050565b60606000805461047090612a8e565b80601f016020809104026020016040519081016040528092919081815260200182805461049c90612a8e565b80156104e95780601f106104be576101008083540402835291602001916104e9565b820191906000526020600020905b8154815290600101906020018083116104cc57829003601f168201915b5050505050905090565b60006104fe82610e69565b61053d576040517f08c379a0000000000000000000000000000000000000000000000000000000008152600401610534906127b1565b60405180910390fd5b6004600083815260200190815260200160002060009054906101000a900473ffffffffffffffffffffffffffffffffffffffff169050919050565b600061058382610710565b90508073ffffffffffffffffffffffffffffffffffffffff168373ffffffffffffffffffffffffffffffffffffffff1614156105f4576040517f08c379a00000000000000000000000000000000000000000000000000000000081526004016105eb90612811565b60405180910390fd5b8073ffffffffffffffffffffffffffffffffffffffff16610613610ed5565b73ffffffffffffffffffffffffffffffffffffffff16148061064257506106418161063c610ed5565b610c1a565b5b610681576040517f08c379a000000000000000000000000000000000000000000000000000000000815260040161067890612731565b60405180910390fd5b61068b8383610edd565b505050565b6106a161069b610ed5565b82610f96565b6106e0576040517f08c379a00000000000000000000000000000000000000000000000000000000081526004016106d790612831565b60405180910390fd5b6106eb838383611074565b505050565b61070b838383604051806020016040528060008152506109d4565b505050565b6000806002600084815260200190815260200160002060009054906101000a900473ffffffffffffffffffffffffffffffffffffffff169050600073ffffffffffffffffffffffffffffffffffffffff168173ffffffffffffffffffffffffffffffffffffffff1614156107b9576040517f08c379a00000000000000000000000000000000000000000000000000000000081526004016107b090612771565b60405180910390fd5b80915050919050565b60008073ffffffffffffffffffffffffffffffffffffffff168273ffffffffffffffffffffffffffffffffffffffff161415610833576040517f08c379a000000000000000000000000000000000000000000000000000000000815260040161082a90612751565b60405180910390fd5b600360008373ffffffffffffffffffffffffffffffffffffffff1673ffffffffffffffffffffffffffffffffffffffff168152602001908152602001600020549050919050565b610882610ed5565b73ffffffffffffffffffffffffffffffffffffffff166108a0610902565b73ffffffffffffffffffffffffffffffffffffffff16146108f6576040517f08c379a00000000000000000000000000000000000000000000000000000000081526004016108ed906127d1565b60405180910390fd5b61090060006112db565b565b6000600660009054906101000a900473ffffffffffffffffffffffffffffffffffffffff16905090565b60606001805461093b90612a8e565b80601f016020809104026020016040519081016040528092919081815260200182805461096790612a8e565b80156109b45780601f10610989576101008083540402835291602001916109b4565b820191906000526020600020905b81548152906001019060200180831161099757829003601f168201915b5050505050905090565b6109d06109c9610ed5565b83836113a1565b5050565b6109e56109df610ed5565b83610f96565b610a24576040517f08c379a0000000000000000000000000000000000000000000000000000000008152600401610a1b90612831565b60405180910390fd5b610a308484848461150e565b50505050565b6060610a4182610e69565b610a80576040517f08c379a0000000000000000000000000000000000000000000000000000000008152600401610a77906127f1565b60405180910390fd5b6000610a8a61156a565b90506000815111610aaa5760405180602001604052806000815250610ad5565b80610ab484611581565b604051602001610ac5929190612589565b6040516020818303038152906040525b915050919050565b610ae5610ed5565b73ffffffffffffffffffffffffffffffffffffffff16610b03610902565b73ffffffffffffffffffffffffffffffffffffffff1614610b59576040517f08c379a0000000000000000000000000000000000000000000000000000000008152600401610b50906127d1565b60405180910390fd5b60405180608001604052808460ff1681526020018360ff1681526020014281526020018260ff1681525060086000600754815260200190815260200160002060008201518160000160006101000a81548160ff021916908360ff16021790555060208201518160000160016101000a81548160ff021916908360ff1602179055506040820151816001015560608201518160020155905050610bfd3360075461172e565b60076000815480929190610c1090612ac0565b9190505550505050565b6000600560008473ffffffffffffffffffffffffffffffffffffffff1673ffffffffffffffffffffffffffffffffffffffff16815260200190815260200160002060008373ffffffffffffffffffffffffffffffffffffffff1673ffffffffffffffffffffffffffffffffffffffff16815260200190815260200160002060009054906101000a900460ff16905092915050565b610cb6610ed5565b73ffffffffffffffffffffffffffffffffffffffff16610cd4610902565b73ffffffffffffffffffffffffffffffffffffffff1614610d2a576040517f08c379a0000000000000000000000000000000000000000000000000000000008152600401610d21906127d1565b60405180910390fd5b600073ffffffffffffffffffffffffffffffffffffffff168173ffffffffffffffffffffffffffffffffffffffff161415610d9a576040517f08c379a0000000000000000000000000000000000000000000000000000000008152600401610d9190612671565b60405180910390fd5b610da3816112db565b50565b600060086000600754815260200190815260200160002090504281600201548260010154610dd49190612910565b11610dde57600080fd5b42600860006007548152602001908152602001600020600101819055505050565b60007f01ffc9a7000000000000000000000000000000000000000000000000000000007bffffffffffffffffffffffffffffffffffffffffffffffffffffffff1916827bffffffffffffffffffffffffffffffffffffffffffffffffffffffff1916149050919050565b60008073ffffffffffffffffffffffffffffffffffffffff166002600084815260200190815260200160002060009054906101000a900473ffffffffffffffffffffffffffffffffffffffff1673ffffffffffffffffffffffffffffffffffffffff1614159050919050565b600033905090565b816004600083815260200190815260200160002060006101000a81548173ffffffffffffffffffffffffffffffffffffffff021916908373ffffffffffffffffffffffffffffffffffffffff160217905550808273ffffffffffffffffffffffffffffffffffffffff16610f5083610710565b73ffffffffffffffffffffffffffffffffffffffff167f8c5be1e5ebec7d5bd14f71427d1e84f3dd0314c0f7b2291e5b200ac8c7c3b92560405160405180910390a45050565b6000610fa182610e69565b610fe0576040517f08c379a0000000000000000000000000000000000000000000000000000000008152600401610fd790612711565b60405180910390fd5b6000610feb83610710565b90508073ffffffffffffffffffffffffffffffffffffffff168473ffffffffffffffffffffffffffffffffffffffff16148061105a57508373ffffffffffffffffffffffffffffffffffffffff16611042846104f3565b73ffffffffffffffffffffffffffffffffffffffff16145b8061106b575061106a8185610c1a565b5b91505092915050565b8273ffffffffffffffffffffffffffffffffffffffff1661109482610710565b73ffffffffffffffffffffffffffffffffffffffff16146110ea576040517f08c379a00000000000000000000000000000000000000000000000000000000081526004016110e190612691565b60405180910390fd5b600073ffffffffffffffffffffffffffffffffffffffff168273ffffffffffffffffffffffffffffffffffffffff16141561115a576040517f08c379a0000000000000000000000000000000000000000000000000000000008152600401611151906126d1565b60405180910390fd5b61116583838361174c565b611170600082610edd565b6001600360008573ffffffffffffffffffffffffffffffffffffffff1673ffffffffffffffffffffffffffffffffffffffff16815260200190815260200160002060008282546111c09190612997565b925050819055506001600360008473ffffffffffffffffffffffffffffffffffffffff1673ffffffffffffffffffffffffffffffffffffffff16815260200190815260200160002060008282546112179190612910565b92505081905550816002600083815260200190815260200160002060006101000a81548173ffffffffffffffffffffffffffffffffffffffff021916908373ffffffffffffffffffffffffffffffffffffffff160217905550808273ffffffffffffffffffffffffffffffffffffffff168473ffffffffffffffffffffffffffffffffffffffff167fddf252ad1be2c89b69c2b068fc378daa952ba7f163c4a11628f55a4df523b3ef60405160405180910390a46112d683838361178a565b505050565b6000600660009054906101000a900473ffffffffffffffffffffffffffffffffffffffff16905081600660006101000a81548173ffffffffffffffffffffffffffffffffffffffff021916908373ffffffffffffffffffffffffffffffffffffffff1602179055508173ffffffffffffffffffffffffffffffffffffffff168173ffffffffffffffffffffffffffffffffffffffff167f8be0079c531659141344cd1fd0a4f28419497f9722a3daafe3b4186f6b6457e060405160405180910390a35050565b8173ffffffffffffffffffffffffffffffffffffffff168373ffffffffffffffffffffffffffffffffffffffff161415611410576040517f08c379a0000000000000000000000000000000000000000000000000000000008152600401611407906126f1565b60405180910390fd5b80600560008573ffffffffffffffffffffffffffffffffffffffff1673ffffffffffffffffffffffffffffffffffffffff16815260200190815260200160002060008473ffffffffffffffffffffffffffffffffffffffff1673ffffffffffffffffffffffffffffffffffffffff16815260200190815260200160002060006101000a81548160ff0219169083151502179055508173ffffffffffffffffffffffffffffffffffffffff168373ffffffffffffffffffffffffffffffffffffffff167f17307eab39ab6107e8899845ad3d59bd9653f200f220920489ca2b5937696c31836040516115019190612614565b60405180910390a3505050565b611519848484611074565b6115258484848461178f565b611564576040517f08c379a000000000000000000000000000000000000000000000000000000000815260040161155b90612651565b60405180910390fd5b50505050565b606060405180602001604052806000815250905090565b606060008214156115c9576040518060400160405280600181526020017f30000000000000000000000000000000000000000000000000000000000000008152509050611729565b600082905060005b600082146115fb5780806115e490612ac0565b915050600a826115f49190612966565b91506115d1565b60008167ffffffffffffffff81111561163d577f4e487b7100000000000000000000000000000000000000000000000000000000600052604160045260246000fd5b6040519080825280601f01601f19166020018201604052801561166f5781602001600182028036833780820191505090505b5090505b60008514611722576001826116889190612997565b9150600a856116979190612b09565b60306116a39190612910565b60f81b8183815181106116df577f4e487b7100000000000000000000000000000000000000000000000000000000600052603260045260246000fd5b60200101907effffffffffffffffffffffffffffffffffffffffffffffffffffffffffffff1916908160001a905350600a8561171b9190612966565b9450611673565b8093505050505b919050565b611748828260405180602001604052806000815250611926565b5050565b60006008600060075481526020019081526020016000209050428160020154826001015461177a9190612910565b1161178457600080fd5b50505050565b505050565b60006117b08473ffffffffffffffffffffffffffffffffffffffff16611981565b15611919578373ffffffffffffffffffffffffffffffffffffffff1663150b7a026117d9610ed5565b8786866040518563ffffffff1660e01b81526004016117fb94939291906125c8565b602060405180830381600087803b15801561181557600080fd5b505af192505050801561184657506040513d601f19601f820116820180604052508101906118439190611e50565b60015b6118c9573d8060008114611876576040519150601f19603f3d011682016040523d82523d6000602084013e61187b565b606091505b506000815114156118c1576040517f08c379a00000000000000000000000000000000000000000000000000000000081526004016118b890612651565b60405180910390fd5b805181602001fd5b63150b7a0260e01b7bffffffffffffffffffffffffffffffffffffffffffffffffffffffff1916817bffffffffffffffffffffffffffffffffffffffffffffffffffffffff19161491505061191e565b600190505b949350505050565b61193083836119c0565b61193d600084848461178f565b61197c576040517f08c379a000000000000000000000000000000000000000000000000000000000815260040161197390612651565b60405180910390fd5b505050565b6000808273ffffffffffffffffffffffffffffffffffffffff16803b806020016040519081016040528181526000908060200190933c51119050919050565b600073ffffffffffffffffffffffffffffffffffffffff168273ffffffffffffffffffffffffffffffffffffffff161415611a30576040517f08c379a0000000000000000000000000000000000000000000000000000000008152600401611a2790612791565b60405180910390fd5b611a3981610e69565b15611a79576040517f08c379a0000000000000000000000000000000000000000000000000000000008152600401611a70906126b1565b60405180910390fd5b611a856000838361174c565b6001600360008473ffffffffffffffffffffffffffffffffffffffff1673ffffffffffffffffffffffffffffffffffffffff1681526020019081526020016000206000828254611ad59190612910565b92505081905550816002600083815260200190815260200160002060006101000a81548173ffffffffffffffffffffffffffffffffffffffff021916908373ffffffffffffffffffffffffffffffffffffffff160217905550808273ffffffffffffffffffffffffffffffffffffffff16600073ffffffffffffffffffffffffffffffffffffffff167fddf252ad1be2c89b69c2b068fc378daa952ba7f163c4a11628f55a4df523b3ef60405160405180910390a4611b966000838361178a565b5050565b6000611bad611ba88461289d565b61286c565b905082815260208101848484011115611bc557600080fd5b611bd0848285612a4c565b509392505050565b600081359050611be781612c07565b92915050565b600081359050611bfc81612c1e565b92915050565b600081359050611c1181612c35565b92915050565b600081519050611c2681612c35565b92915050565b600082601f830112611c3d57600080fd5b8135611c4d848260208601611b9a565b91505092915050565b600081359050611c6581612c4c565b92915050565b600081359050611c7a81612c63565b92915050565b600060208284031215611c9257600080fd5b6000611ca084828501611bd8565b91505092915050565b60008060408385031215611cbc57600080fd5b6000611cca85828601611bd8565b9250506020611cdb85828601611bd8565b9150509250929050565b600080600060608486031215611cfa57600080fd5b6000611d0886828701611bd8565b9350506020611d1986828701611bd8565b9250506040611d2a86828701611c56565b9150509250925092565b60008060008060808587031215611d4a57600080fd5b6000611d5887828801611bd8565b9450506020611d6987828801611bd8565b9350506040611d7a87828801611c56565b925050606085013567ffffffffffffffff811115611d9757600080fd5b611da387828801611c2c565b91505092959194509250565b60008060408385031215611dc257600080fd5b6000611dd085828601611bd8565b9250506020611de185828601611bed565b9150509250929050565b60008060408385031215611dfe57600080fd5b6000611e0c85828601611bd8565b9250506020611e1d85828601611c56565b9150509250929050565b600060208284031215611e3957600080fd5b6000611e4784828501611c02565b91505092915050565b600060208284031215611e6257600080fd5b6000611e7084828501611c17565b91505092915050565b600060208284031215611e8b57600080fd5b6000611e9984828501611c56565b91505092915050565b600080600060608486031215611eb757600080fd5b6000611ec586828701611c6b565b9350506020611ed686828701611c6b565b9250506040611ee786828701611c6b565b9150509250925092565b611efa816129cb565b82525050565b611f09816129dd565b82525050565b6000611f1a826128cd565b611f2481856128e3565b9350611f34818560208601612a5b565b611f3d81612bf6565b840191505092915050565b6000611f53826128d8565b611f5d81856128f4565b9350611f6d818560208601612a5b565b611f7681612bf6565b840191505092915050565b6000611f8c826128d8565b611f968185612905565b9350611fa6818560208601612a5b565b80840191505092915050565b6000611fbf6032836128f4565b91507f4552433732313a207472616e7366657220746f206e6f6e20455243373231526560008301527f63656976657220696d706c656d656e74657200000000000000000000000000006020830152604082019050919050565b60006120256026836128f4565b91507f4f776e61626c653a206e6577206f776e657220697320746865207a65726f206160008301527f64647265737300000000000000000000000000000000000000000000000000006020830152604082019050919050565b600061208b6025836128f4565b91507f4552433732313a207472616e736665722066726f6d20696e636f72726563742060008301527f6f776e65720000000000000000000000000000000000000000000000000000006020830152604082019050919050565b60006120f1601c836128f4565b91507f4552433732313a20746f6b656e20616c7265616479206d696e746564000000006000830152602082019050919050565b60006121316024836128f4565b91507f4552433732313a207472616e7366657220746f20746865207a65726f2061646460008301527f72657373000000000000000000000000000000000000000000000000000000006020830152604082019050919050565b60006121976019836128f4565b91507f4552433732313a20617070726f766520746f2063616c6c6572000000000000006000830152602082019050919050565b60006121d7602c836128f4565b91507f4552433732313a206f70657261746f7220717565727920666f72206e6f6e657860008301527f697374656e7420746f6b656e00000000000000000000000000000000000000006020830152604082019050919050565b600061223d6038836128f4565b91507f4552433732313a20617070726f76652063616c6c6572206973206e6f74206f7760008301527f6e6572206e6f7220617070726f76656420666f7220616c6c00000000000000006020830152604082019050919050565b60006122a3602a836128f4565b91507f4552433732313a2062616c616e636520717565727920666f7220746865207a6560008301527f726f2061646472657373000000000000000000000000000000000000000000006020830152604082019050919050565b60006123096029836128f4565b91507f4552433732313a206f776e657220717565727920666f72206e6f6e657869737460008301527f656e7420746f6b656e00000000000000000000000000000000000000000000006020830152604082019050919050565b600061236f6020836128f4565b91507f4552433732313a206d696e7420746f20746865207a65726f20616464726573736000830152602082019050919050565b60006123af602c836128f4565b91507f4552433732313a20617070726f76656420717565727920666f72206e6f6e657860008301527f697374656e7420746f6b656e00000000000000000000000000000000000000006020830152604082019050919050565b60006124156020836128f4565b91507f4f776e61626c653a2063616c6c6572206973206e6f7420746865206f776e65726000830152602082019050919050565b6000612455602f836128f4565b91507f4552433732314d657461646174613a2055524920717565727920666f72206e6f60008301527f6e6578697374656e7420746f6b656e00000000000000000000000000000000006020830152604082019050919050565b60006124bb6021836128f4565b91507f4552433732313a20617070726f76616c20746f2063757272656e74206f776e6560008301527f72000000000000000000000000000000000000000000000000000000000000006020830152604082019050919050565b60006125216031836128f4565b91507f4552433732313a207472616e736665722063616c6c6572206973206e6f74206f60008301527f776e6572206e6f7220617070726f7665640000000000000000000000000000006020830152604082019050919050565b61258381612a35565b82525050565b60006125958285611f81565b91506125a18284611f81565b91508190509392505050565b60006020820190506125c26000830184611ef1565b92915050565b60006080820190506125dd6000830187611ef1565b6125ea6020830186611ef1565b6125f7604083018561257a565b81810360608301526126098184611f0f565b905095945050505050565b60006020820190506126296000830184611f00565b92915050565b600060208201905081810360008301526126498184611f48565b905092915050565b6000602082019050818103600083015261266a81611fb2565b9050919050565b6000602082019050818103600083015261268a81612018565b9050919050565b600060208201905081810360008301526126aa8161207e565b9050919050565b600060208201905081810360008301526126ca816120e4565b9050919050565b600060208201905081810360008301526126ea81612124565b9050919050565b6000602082019050818103600083015261270a8161218a565b9050919050565b6000602082019050818103600083015261272a816121ca565b9050919050565b6000602082019050818103600083015261274a81612230565b9050919050565b6000602082019050818103600083015261276a81612296565b9050919050565b6000602082019050818103600083015261278a816122fc565b9050919050565b600060208201905081810360008301526127aa81612362565b9050919050565b600060208201905081810360008301526127ca816123a2565b9050919050565b600060208201905081810360008301526127ea81612408565b9050919050565b6000602082019050818103600083015261280a81612448565b9050919050565b6000602082019050818103600083015261282a816124ae565b9050919050565b6000602082019050818103600083015261284a81612514565b9050919050565b6000602082019050612866600083018461257a565b92915050565b6000604051905081810181811067ffffffffffffffff8211171561289357612892612bc7565b5b8060405250919050565b600067ffffffffffffffff8211156128b8576128b7612bc7565b5b601f19601f8301169050602081019050919050565b600081519050919050565b600081519050919050565b600082825260208201905092915050565b600082825260208201905092915050565b600081905092915050565b600061291b82612a35565b915061292683612a35565b9250827fffffffffffffffffffffffffffffffffffffffffffffffffffffffffffffffff0382111561295b5761295a612b3a565b5b828201905092915050565b600061297182612a35565b915061297c83612a35565b92508261298c5761298b612b69565b5b828204905092915050565b60006129a282612a35565b91506129ad83612a35565b9250828210156129c0576129bf612b3a565b5b828203905092915050565b60006129d682612a15565b9050919050565b60008115159050919050565b60007fffffffff0000000000000000000000000000000000000000000000000000000082169050919050565b600073ffffffffffffffffffffffffffffffffffffffff82169050919050565b6000819050919050565b600060ff82169050919050565b82818337600083830152505050565b60005b83811015612a79578082015181840152602081019050612a5e565b83811115612a88576000848401525b50505050565b60006002820490506001821680612aa657607f821691505b60208210811415612aba57612ab9612b98565b5b50919050565b6000612acb82612a35565b91507fffffffffffffffffffffffffffffffffffffffffffffffffffffffffffffffff821415612afe57612afd612b3a565b5b600182019050919050565b6000612b1482612a35565b9150612b1f83612a35565b925082612b2f57612b2e612b69565b5b828206905092915050565b7f4e487b7100000000000000000000000000000000000000000000000000000000600052601160045260246000fd5b7f4e487b7100000000000000000000000000000000000000000000000000000000600052601260045260246000fd5b7f4e487b7100000000000000000000000000000000000000000000000000000000600052602260045260246000fd5b7f4e487b7100000000000000000000000000000000000000000000000000000000600052604160045260246000fd5b6000601f19601f8301169050919050565b612c10816129cb565b8114612c1b57600080fd5b50565b612c27816129dd565b8114612c3257600080fd5b50565b612c3e816129e9565b8114612c4957600080fd5b50565b612c5581612a35565b8114612c6057600080fd5b50565b612c6c81612a3f565b8114612c7757600080fd5b5056fea26469706673582212200da25f294a924182093504e7ca8e7dedaa8520e0dffa88c48ecdfe7c9cda00d664736f6c63430008000033",
  "immutableReferences": {},
  "source": "pragma solidity 0.8.0;\r\n\r\nimport \"../node_modules/@openzeppelin/contracts/token/ERC721/ERC721.sol\";\r\nimport \"../node_modules/@openzeppelin/contracts/access/Ownable.sol\";\r\n\r\ncontract Token is ERC721, Ownable {\r\n    struct Pet {\r\n        uint8 damage;\r\n        uint8 magic;\r\n        uint256 lastMeal;\r\n        uint256 endurance;\r\n    }\r\n\r\n    uint256 nextId = 0;\r\n\r\n    mapping(uint256 => Pet) private _tokenDetails;\r\n\r\n    constructor(string memory name, string memory symbol)\r\n        ERC721(name, symbol)\r\n    {}\r\n\r\n    function mint(\r\n        uint8 damage,\r\n        uint8 magic,\r\n        uint8 endurance\r\n    ) public onlyOwner {\r\n        _tokenDetails[nextId] = Pet(damage, magic, block.timestamp, endurance);\r\n        _safeMint(msg.sender, nextId);\r\n        nextId++;\r\n    }\r\n\r\n    function feed(uint256 tokenId) public {\r\n        Pet storage pet = _tokenDetails[nextId];\r\n        require(pet.lastMeal + pet.endurance > block.timestamp);\r\n        _tokenDetails[nextId].lastMeal = block.timestamp;\r\n    }\r\n\r\n    function _beforeTokenTransfer(\r\n        address from,\r\n        address to,\r\n        uint256 tokenId\r\n    ) internal override {\r\n        Pet storage pet = _tokenDetails[nextId];\r\n        require(pet.lastMeal + pet.endurance > block.timestamp);\r\n    }\r\n}\r\n",
  "sourcePath": "E:\\working_folder\\NFT games\\contracts\\Token.sol",
  "compiler": {
    "name": "solc",
    "version": "0.8.0+commit.c7dfd78e.Emscripten.clang"
  },
  "schemaVersion": "3.4.5",
  "updatedAt": "2022-03-04T15:47:55.028Z",
  "devdoc": {
    "kind": "dev",
    "methods": {
      "approve(address,uint256)": {
        "details": "See {IERC721-approve}."
      },
      "balanceOf(address)": {
        "details": "See {IERC721-balanceOf}."
      },
      "getApproved(uint256)": {
        "details": "See {IERC721-getApproved}."
      },
      "isApprovedForAll(address,address)": {
        "details": "See {IERC721-isApprovedForAll}."
      },
      "name()": {
        "details": "See {IERC721Metadata-name}."
      },
      "owner()": {
        "details": "Returns the address of the current owner."
      },
      "ownerOf(uint256)": {
        "details": "See {IERC721-ownerOf}."
      },
      "renounceOwnership()": {
        "details": "Leaves the contract without owner. It will not be possible to call `onlyOwner` functions anymore. Can only be called by the current owner. NOTE: Renouncing ownership will leave the contract without an owner, thereby removing any functionality that is only available to the owner."
      },
      "safeTransferFrom(address,address,uint256)": {
        "details": "See {IERC721-safeTransferFrom}."
      },
      "safeTransferFrom(address,address,uint256,bytes)": {
        "details": "See {IERC721-safeTransferFrom}."
      },
      "setApprovalForAll(address,bool)": {
        "details": "See {IERC721-setApprovalForAll}."
      },
      "supportsInterface(bytes4)": {
        "details": "See {IERC165-supportsInterface}."
      },
      "symbol()": {
        "details": "See {IERC721Metadata-symbol}."
      },
      "tokenURI(uint256)": {
        "details": "See {IERC721Metadata-tokenURI}."
      },
      "transferFrom(address,address,uint256)": {
        "details": "See {IERC721-transferFrom}."
      },
      "transferOwnership(address)": {
        "details": "Transfers ownership of the contract to a new account (`newOwner`). Can only be called by the current owner."
      }
    },
    "version": 1
  },
  "userdoc": {
    "kind": "user",
    "methods": {},
    "version": 1
  }
}